:100000000C94DF080C940C090C940C090C940C094A
:100010000C940C090C940C090C940C090C940C090C
:100020000C940C090C940C090C940C090C940C09FC
:100030000C94873C0C940C090C940C090C940C093E
:100040000C940C090C9423260C940C090C940C09A8
:100050000C940C090C940C090C940C090C940C09CC
:100060000C940C090C945E3C0C94343C0C940C09DC
:100070000C940C090C940C090C940C090C940C09AC
:100080000C940C090C940C090C940C090C940C099C
:100090000C940C090C940C090C940C090C940C098C
:1000A0000C940C090C940C090C940C090C940C097C
:1000B0000C940C090C940C090C940C090C940C096C
:1000C0000C940C090C940C090C940C090C94063C2F
:1000D0000C94DC3B0C940C090C940C090C940C094A
:1000E0000C940C090C9449220C94E2140C94971F64
:1000F0000C947C240C94D22E0C9480150C94082320
:100100000C943A2D0C94643B0C947F240C94B31FF4
:100110000C944A3A0C94B21B0C943B180C94323554
:100120000C9456180C94242B0C94CF300C949D31C5
:100130000C94D62A0C94462E0C94FD2C0C94CA35A3
:100140000C94282C0C94DD1E0C949F250C94C8351F
:100150000C94D43B0C94B6190C9466120C9435157F
:100160000C943F2D0C94053A0C947B1F0C941F1695
:100170000C94C1160C94F51D0C946F110C9446153B
:100180000C9401140C94BC270C9414160C948C340D
:100190000C943E300C94651D0C9423290C94271E5E
:1001A0000C94381D0C94DA270C94E8350C945C34CC
:1001B0000C9447160C94A5220C94C8120C94C22BD4
:1001C0000C94C9110C94261D0C94BC1D0C944A3B34
:1001D0000C9469290C945D3A0C9414120C94072B1E
:1001E0000C9421250C94A1200C9469140C94091FE3
:1001F0000C94F7160C94932B0C94D1250C94A821F5
:100200000C94DC1B0C94F7230C94C11B0C94E22877
:100210000C94023A0C94D13A0C94A6190C945823DD
:100220000C94BD270C94BB360C9478350C94E511D6
:100230000C94271C0C94EA2B0C94542F0C947F18CC
:100240000C94AF1C0C94C6360C9449250C94D32CFA
:100250000C94F7280C94732F0C94BC370C949434A2
:100260000C949C230C948E130C9435120C941F1434
:100270000C941E210C945D300C9476270C94F21C87
:100280000C943E160C941022040002040704000291
:100290000000040004000004070404000004040437
:1002A0000000000000000004000000000004000046
:1002B0000202000000020407000407070400000017
:1002C0000004000404000004000202040404040406
:1002D00000000400040404040404040004000203F5
:1002E00004000404000400040000040004000000F2
:1002F000000000000001020102EB022329020001BC
:100300000000006929030001000000023A04000116
:10031000000000053A0500010000004A3A0601000D
:100320000112116F11070001000000E51108010022
:1003300001EA02C911090001000000BC270A0201FC
:10034000010D11E2280B030103E702BD270C020196
:1003500002E502F7280D020002EB023A2D0E020020
:1003600002DF108E130F030003E70269141002006E
:1003700002E502011411050005E0021F141202003B
:1003800002DF10932B13010001EA02EA2B14020092
:1003900002E502C22B15020002DF10072B16040033
:1003A00004DC02462E17050005D7023F2D18010078
:1003B00001EA02F21C19080008CF02651D1A0300A9
:1003C00003CC02BC1D1B020002DF10AF1C1C02008C
:1003D00002E502381D1D040004FA10F51D1E01007F
:1003E00001EA02261D1F080008C402783520020019
:1003F00002E502323521040003E1107F18220300D8
:1004000002FE10A61923030002FE10B619240400F0
:1004100004DB10943425010001EA028C3426030029
:1004200003C1025C3427050005BC028015280300C7
:1004300003CC02561829050003B9027F242A0400C0
:1004400003B602E2142B030002FE1035152C040043
:1004500004DB1046152D030003B3023E162E0300E5
:1004600003001147162F060006AD02C11630060024
:1004700006A702F71631010001EA026612320300F4
:1004800003E702C81233020002DF101F1634030014
:1004900002FE10C63635040004FA10BC37360300DD
:1004A00003CC02351237010001EA02732F38030032
:1004B00003E7029D3139020002DF10542F3A030096
:1004C00002FE103E303B030002FE10CF303C06001F
:1004D00006A7025D303D030002FE107B1F3E0300B5
:1004E00002FE10971F3F0800089F02B31F40020042
:1004F00002DF101022410500059A02A522420400E5
:10050000040711DD1E43020002DF10091F4404002E
:10051000039702A8214505000592024922460100E1
:1005200001EA02282C47040003F010D32C480500F0
:10053000058D02FD2C49040004DB109F254A0300B1
:1005400003C102D1254B00010000005D3A4C0401BB
:1005500003E1104A3B4D010101EA02D43B4E060083
:10056000058802643B4F00050000002000230026A0
:100570000029002C002F00320000010000030106BA
:100580000109010F4700440045008001354800443F
:1005900000450020010D88008000810080000E8A47
:1005A000008000810020000F8C0080008100080086
:1005B0000CB300B000B10080033EB400B000B10045
:1005C0002003239800900091008000249A0090005E
:1005D00091002000259C009000910008003BA8009D
:1005E000A000A10080003CAA00A000A10020003DC6
:1005F000AC00A000A10008005B28012001210180BF
:10060000005C2A012001210120005D2C0120012134
:1006100001080078DAA559E96EDCC8117E95DE0183
:100620008C6403C998E1907328F00F5D5E7BD7B2AC
:10063000B59615070802A245F6CC34C46BD9A48E32
:100640002CF4EEA9EAEA8B9CB177911830C4EEAE97
:10065000EAA38EAF8EF97D72D7CB224F1F44AB64D5
:100660005DA9C9C9649B6527ECAF3F9D9FFFC892F8
:10067000D7F1EB29BB9355DFC942E1ECC75B766646
:10068000863FB2E875B4781D4D678BE92C4A264742
:1006900093AC2E4B5EE5B0C9EF135E1475C63B916B
:1006A000D632572CABFBAA7BF32A9B9CAC8EE0C4C2
:1006B000AE83A3529EDD335885E9607D110704792E
:1006C0006E099A5AE93FB27AF3AA674D5F1469DF5F
:1006D00010C3C233FCD68BF6D9ED0917B847EA56DA
:1006E000A82EED6476AF68D4B5BC52A5EC527B2A37
:1006F0009315BCDF9C9FC03B0AC1DB54EDFA2EAFC3
:100700001FABC949844FAB36720B377A2AE6716248
:100710008F508D4CE9737292CC3C55C58B7A9BCA35
:10072000CADD5E5F7B7232F73B992B5B0A1AA681AA
:100730001C968E544F8A76B8D94006CBD811E772F2
:100740002B3B5EA475DF8D181E78D10B1CE762C3AE
:10075000FBA24BDD44C99FD2BC6F790716A0EF39CD
:10076000F3870BD067573783BDB2C1E1D1C211EF18
:10077000F2385EAEA696B855A9395BD88F3C765F45
:1007800089FB5AB8AFA5FB12057F764A0371CCDD11
:100790002132CAEC01F0098224B582ADE15FB019C3
:1007A000D03731C55E2C65D3AFA3641A323AC5F990
:1007B000C756A26EE493284692CB79C75325FF0310
:1007C00007EC7A70872E45890516A5044CC92AB80E
:1007D000EFD26BBA792C0F68237B062BF37B185D65
:1007E000ECFAB17660664F3DB1BF3158E078637482
:1007F000AC4E3E887427B73BFDC2F92AA407F3DC50
:100800001662DF84995B4BBBE746906CE201A775EB
:100810008943CC66292DD5F6CDABBF0106CCE703C5
:10082000DE47D9ED400C69666D1E28827774CB7562
:10083000E4D49339C3515971EFBE65EE3E9FAB2CA2
:100840001DDA08CBCA3CDD339B697082681AEF451C
:10085000384C8D35E7B2B59F84049AD853F585128C
:10086000C1A6917F5897F4329F3927E67D8E37E9EC
:100870006429E0A95A79E63B35D88864760ACD8A9E
:1008800044B5F40AEA76A22D6B70F9E6A08EC26533
:10089000AFA6D83FB32BB39EB7CEDADAA7740F2F2B
:1008A00058E726D196F13A24ACB5DFA545097B453A
:1008B000C1FEB9B8EBC143EA6672B2B623D865CBC4
:1008C000FC33668EAC151CA0BBCD458BE7A14F1247
:1008D000AE4496E0B1959DD8A340372042005351D5
:1008E0008A762BAAEC394500824BC0148151BAABF1
:1008F0004BB107F38A974DE85266EC407E1806E04C
:10090000EA1E00E9B94EC6ADDC6E458B8F50E8712A
:100910008871893F5C0719B813EF841350047EB2C5
:100920009100FB001229C990656D46623D9A6C01E9
:100930001FF43DC1A3CC48D380E669D837A8055041
:10094000E4D1C46068AAE0BC146CDA8508FC2639DE
:100950002FA21119AAC09279752C40880874659D40
:10096000CBCD730ABA767BB5423B2933910E6E80AC
:10097000ABC4161B36D2E1901EE7D24218188A8803
:10098000D0E8727C7C0C0A93B9A83A389CD59B0DB0
:100990009CA2DDD4853838C702AE7E8693E6721AF3
:1009A000ACF44DEE254D79C0AE0F8E59C236A492EF
:1009B00051703E1CFF4103D31183D665EF61295E60
:1009C0003B827120FF1F8DADF4C666F0DC8F2019CD
:1009D000D902E34E64F741F89FBB578DA2BFBB41DC
:1009E00053833F8FCF0F02D0DC6E300A7DDF14CBF4
:1009F00062C430164B925882BD20F28D540B6D1A92
:100A00006286DCD09B1277A54320F78D3D02D10D85
:100A10002487D914E9A91787921EB75D1D86E55969
:100A200062594651D9913BC5801D2C2C31860197C6
:100A30003AA03608A7AC2DEF74DA017F25200138E3
:100A4000854E08400589F9D4FC0400E3F38001CC0D
:100A50001169C2378C3236B8F77C8F48BF406711B6
:100A60006ECF414A014C0B62AAC493B902043AE723
:100A7000A7B225E49A119195C71FA4272015785590
:100A80009029602EBDF1E6E9FD3289882EF0EC60F8
:100A9000751EDBD50E33B830D299840E504B0489C5
:100AA0001DB02C3C8BAA37DD236F45C85B4A55DB54
:100AB000B856D64A1E4A21F6368D57B4E9B7DF310B
:100AC000C7F7EAECE47B909CAC8754871139C1D31B
:100AD000280F4911F601CD246675CEC7666B4FA06D
:100AE000830D5A2F8523E6A25310AB8003B6A42CA6
:100AF00084A2B1C3D0A59B1FE073908704180AA2FB
:100B00003589C3405F9AD3013FD525781E5D011515
:100B100061729903661DD0756142229ABA35D190EF
:100B2000BC5D8F9DA589A746825EC3D8BB763B8DF1
:100B3000441112C17329521C0283C091E2179BE435
:100B400060957A7A719E5E9DFE135317CCEACE6E45
:100B50006FD2EBF71F6F10E1A012BE3E9B1F5D9F8F
:100B600045F07F360916BB47BD78313DBABEC0851A
:100B7000F30F9FCE7F49DF7EBEFC157D6EAAFF1D61
:100B80004DAECE6F818A77A5D8F228594C81F0FA04
:100B9000EB159D1621967EBE3CBF7CFF8FCBF4EB00
:100BA000FB8F179FBEA2EE239CBCB9FC0C93740B69
:100BB000D14A5EE0599770D6259E355827FDE2FA56
:100BC0003B587F87EBB0FAFEF4437A767A7B815903
:100BD0005412E1556EBE9C7EB9496F6EAF6E7E8534
:100BE000959B4BBCC0E205339A1E722C5D57E89A68
:100BF000DD9453F8A9DF38051A302A1C5F9F4E2771
:100C000027FF9A1EADFE0DCF38C3EF157D9FE3374A
:100C1000208D1E5CE00072213DB8C40154BC7AF006
:100C20001607B1E1FF490FCC06EF7090980D7EC614
:100C3000C1D2F0FCA28F313C1FF400795E06F803AC
:100C400029B06E37CCE6F339DCF868C255328D979F
:100C5000B94E2FBA4224D35974070F365CE6795A3D
:100C6000BFF83C8C71124DB405E749656E8C826902
:100C7000E3D95070A612F7B4401F786636CDCB0981
:100C800095CF79C5AABA63E00C0C51890190127A0C
:100C9000326DD3EC7127E19B6C53B106BC0B4E2235
:100CA000D8B7BCBD123A56B633B6A95B0666F27722
:100CB0003B960A57733DAFA714751A80F52F1D4652
:100CC0001DA88AB67021280C7887D4DC5C936A4012
:100CD000CA5C0DB142527409CAAF69560728BD35C6
:100CE000DC5454CC96498E1F8CF29C308335BC0565
:100CF0009364A26DEB56A7AE76A115102755A7BB3E
:100D00003B6F39BC37675DCD349260B5AE0180CAA8
:100D1000D6F715F8A2CC996D7FF86E0C0553827941
:100D20004B65C04A67CD7E0EC8F02ABC141089A955
:100D30001CB38B65FD20EC6D1856ECE8F17ED9D51F
:100D4000F7AEA2A774776FDD249DEE7C2CB02C113A
:100D5000089091D961396367B110B7B8122D07F3C4
:100D60002657CA76B2318CF36448002AE81BFF2666
:100D700045B987A518644BE12E8832FC09ED7465EE
:100D8000054AC5FE95508A6F0583EA09029E5518EB
:100D90006C7925155A93827433EF0B1D2F360CF3A3
:100DA000036650531BBE7810A8094C0DBECDB0E3AE
:100DB0006DAE8DDD5063B97F85E2D7291383AF76A1
:100DC00053D48F94737D042BE78C9E83EEA551251D
:100DD0001E2D80DDD302A60EE182AC1ACA4CA8A853
:100DE000D04B15DED44FC71A5D9DF5376DBD05613B
:100DF0009670758E6FDB4068875B82B0053A2E96E1
:100E0000009F8579141A2B7A161C83A20635A0251B
:100E1000637173E308F6A4C31E655140B0CA60BF96
:100E200041838662B8E77412FA0E07B6056FC00BED
:100E30004987FA024821CBBEB473D639C0B26E6C72
:100E40001346176FB099F65B8D4161C7F2C63872D1
:100E500057D76CC3F5EBE86558AB7E094DEA00DE69
:100E6000AD47242855D84B77A628B67FD122C3CDCD
:100E700021942BA1CBF3DB4AF50D8673417EAFC1E4
:100E800016ABA9AFBCCB7679BD2541FF40A580EE5E
:100E90001043E1D357F7B0318206351E8379E51749
:100EA000C078C98D00551480213A39240A50C22ACD
:100EB0003281B96F5511A6D5550130F8001BF0BB32
:100EC000C2A29B93D05AD7AEB6174389E0A8583E2A
:100ED000619F005F2146DE61CAB1C16689FA814A1D
:100EE00033DDD476506B5ADD3975401496BC1580CD
:100EF00008595506CBB814BB144BA38F165DC15BC4
:100F00001437163207921754293900F6CE0C229363
:100F10007B61DE07D16BAF1B84E10B328CF96C95E2
:100F2000243A1A9AC14287431A2C126D1F30582C4A
:100F300096F03D7F79D1754A03F021A8776FEAE2F8
:100F400030895508AA552646D5F731DAEEC13ADA86
:100F50009754A6E6B3191E9523E17677BDF64FCDDB
:100F6000B5919B1AFF1632E8D063DDB14ED0024C2A
:100F70003D3E68BFD08E872AB8F5CCFF3630E0E022
:100F800041B1CDF48A798E6E66EB42CDA7B22B6764
:100F90005910604DE7463F50377870CE9A952E43F2
:100FA00000F9C27BAFF00705AAE1BF776BC3613ED2
:100FB000527FFA31C637DB5553E07FAE49B65AFA55
:100FC000A6D460E75D0D55F376FF8CB0E705EC6BBA
:100FD000DFE749ADFE7D6A4D6312CB3AF6AD9C80EA
:100FE000D4F574C81E5E2329D85C201036CEAF8C91
:100FF0004C80CA7619FE8C9161403DD895F8BF8C23
:10100000ACDF37B2638436D77A32F2B697EBB34CA3
:10101000FFB290211D4804A410763F57589F7A6C68
:10102000B68DA2C302988549EC9F12C13AE4086AC2
:10103000B49001FD717AA83CDFD36FD86D09147D9F
:101040003C9F0DEBE13F328C48A7D06DA773DAE5EA
:101050009A126AE5AD59F5A5F9A37E23A38D7C8587
:101060003B2A7FA9B90789F9CAD7B4ADC804A05EE5
:101070007EB86E3DC6EC74008243951D04869EC208
:1010800098D6E37AEE0BDFFD9762C94BC724613136
:101090001B14D3DC95E7071BC70188ACA788F13A7E
:1010A000CFA6DF65FA1061E600C1E6275828E7669B
:1010B000D18A739E1DE7B2ED9E8FA369144DD7D1DF
:1010C000229DAE67D36475DC72D540446A9FA186C9
:1010D00079F92F556EF492C40A0000040000000450
:1010E00004040407040000020400020402040007D0
:1010F00004020704000002040402040000040407C0
:1011000004000204040400040400040401070400B1
:10111000040200000000000000060002026A400213
:10112000FE10691704DB10680A02DF10674002FE38
:1011300010664003E110654003F010641F07E410DF
:10114000634003F010620B02EB10614003ED10608E
:101150004003F0105F1C07F3105E4002FE105D14A8
:1011600004FA105C4002FE105B100300115A1104D7
:1011700003115911040711580D020B11570B0112DD
:10118000115640010D115512040E11540B0112118C
:10119000531002131152150315110040021811517A
:1011A0000E021A115009011C114F060000002829D7
:1011B0002A2B2C2D2E2F5051525354555657112453
:1011C0001FBECFEFD1E2DEBFCDBF00E00CBF14BE2B
:1011D0000FB6F894A89580916000886180936000B4
:1011E000109260000FBE12E0A0E0B2E0ECECFAE773
:1011F00000E00BBF02C007900D92AA32B107D9F7E9
:1012000024E0AAE2B2E001C01D92AB3BB207E1F7D5
:101210000E9454270C94643D0C940000CF93DF93FC
:10122000CDB7DEB76E970FB6F894DEBF0FBECDBF59
:101230000E9441276B017C019E012F5F3F4F1901E6
:10124000AE01475F5F4F5B8B4A8B809126028823FC
:1012500009F471C50E944127C61AD70AE80AF90A9B
:10126000F89480912602882351F08FEF8093260214
:1012700078940000F894809126028111F9CF789437
:101280000E944127A7019601260F371F481F591FAB
:10129000288F398F4A8F5B8F81E08093260280915F
:1012A0004802882309F440C0109248028FEF8983D6
:1012B0009DE6E92E91E1F92E66E27DE1C1010E94F1
:1012C00078298C01892B81F1D80156968C9182FF67
:1012D000F3CF0E944127F894F80137892689422FDD
:1012E0004B7F468B78949F938F937F936F931F923E
:1012F0003F9321701F922F9389811F928F93FF92AA
:10130000EF920E9477322DB73EB7245F3F4F0FB662
:10131000F8943EBF0FBE2DBF66E27DE1C1010E9481
:1013200078298C01892B81F680914902882309F163
:10133000109249028FEF898308E611E162E375E3B9
:10134000C1010E947829FC01892B99F0958D868D29
:101350009813F4CFF894858D968D891709F4CCC530
:10136000789462E375E3C1010E947829FC01892B1E
:1013700069F780914702882309F456C0109247020A
:101380008FEF898B8CE0B82E66E578E1CE0141962F
:101390000E9478294C01892B09F446C0D401579644
:1013A0008C91579780FFF0CFF894F40144805580DA
:1013B0006680778087898E7F878B789456968C910C
:1013C000813009F422C408F4FAC3823009F4BBC3A3
:1013D0008330D1F6A9881F86188A9E01215F3F4F6E
:1013E00042E061E0F401848995890E94AC188F8500
:1013F0009889382F292F3D8B2C8B790100E010E044
:10140000B401605F7F4FC12CA3019201C4010C960F
:101410000E94BF153C8932FFB7CF8091270281110E
:10142000B3CF8CE10E94FB3980914602882389F179
:10143000109246028FEF8B87A2E0DA2EBDE2EB2EF0
:1014400018E0F12E6FE176E1CE010B960E9478292B
:101450008C01892BF1F0D80152968C9182FFF2CF4A
:1014600080FF12C0C8010E94EB35F801D28AE982E0
:10147000FA82910142E060E0848595850E94AC1873
:10148000C8010E943E17DECF6B85C8010E948317FA
:10149000D9CF80914502882309F45AC010924502A1
:1014A0008FEF8B8777247A94FDE14F2E65E372E10D
:1014B000CE010B960E9478298C01892B09F448C033
:1014C000D80150968C9182FFF1CFF894F801848076
:1014D0009580A680B780F488108A148A78948085D5
:1014E0009185A285B385881A990AAA0ABB0AD801F0
:1014F000FF2089F052968C91F801E80FF11D758A52
:10150000168A178A8D5FF801828B8E32D8F4FA948E
:10151000D801F110EFCF51968C91882309F4DDC1E9
:10152000813009F49FC3823009F494C4D8015296E3
:101530008C9190E08E970CF4B9CF6B85C8010E9416
:101540009637B4CF6B85C8010E949637FA94E0CFE6
:1015500080915102882309F45FC0109251028FEFED
:101560008B8712E0A12E03E2E02E8AE6F82E94E0AB
:10157000B92E20E4C22E38E0D32E64E57FE2CE01FE
:101580000B960E9478298C01892B09F445C0F8013B
:10159000828982FFF2CF80FF3AC0C8010E94EB35FA
:1015A000D8015296AC925297E9821A821C96ED911C
:1015B000FC911D97A10162E080810E943E1BF9828F
:1015C000BA82D8011C96ED91FC911D97A10162E0B1
:1015D00080810E943E1BF982CA82D8011C96ED913F
:1015E000FC911D97A10162E080810E943E1BE9826F
:1015F000DA82D8011C96ED91FC911D97A10162E061
:1016000080810E943E1BC8010E94EE30B6CF6B85E0
:10161000C8010E940D31B1CF80914A028823E9F0C0
:1016200010924A028FEF898301E311E169E07FE1C3
:10163000C1010E947829009781F0FC01208D2F3F85
:10164000A9F7F8942685211141C3789469E07FE1D8
:10165000C1010E947829009781F780914B0288236D
:10166000D9F110924B028FEF89830CE211E169E40A
:1016700072E2C1010E947829009771F1DC011E9687
:101680002C911E9723FFF3CFF894FC012685277F2A
:10169000268778949C01265E3F4F3F932F93509668
:1016A0008C918695869586951F928F9389811F923E
:1016B0008F931F930F930E947732EDB7FEB7389642
:1016C0000FB6F894FEBF0FBEEDBF69E472E2C10130
:1016D0000E947829009791F680914E02882309F4A0
:1016E00046C010924E028FEF898302E211E161ED54
:1016F00075E2C1010E947829FC01892BC1F1848D1A
:1017000080FFF5CFF89494812581368147815489F3
:1017100065897689A789B08DF18CE28CD38C848D14
:101720008E7F848F7894DF92EF92FF92BF93AF9376
:101730007F936F935F934F933F932F939F938981F1
:101740001F928F931F930F930E9477322DB73EB74E
:10175000205F3F4F0FB6F8943EBF0FBE2DBF61ED27
:1017600075E2C1010E947829FC01892B41F6A895F8
:1017700080917302882329F080E4809360001092A6
:10178000730210913403112309F46DC000912A02F1
:1017900000FD12C0153008F466C0B0907402CB2C66
:1017A0008BEF8B0D8C3308F4EDC2EEE7CE1609F407
:1017B00088C4016000932A02412F50E06EE770E078
:1017C00084E792E00E94353D009739F00E7F009348
:1017D0002A028457924011E0180F01FD0CC0902F8F
:1017E000926090932A0286E695E09F938F930E94E1
:1017F00077320F900F90B12EDD24DA9480E0EB2C3D
:10180000F12C18C090E0402F50E0481B590BB70155
:10181000680F791F6C587D4F8C589D4F0E944B3D2F
:1018200010922602802F9FB7F8942091340312174C
:1018300061F09FBF10913403012F0B1919F79FB767
:10184000F894209134031213F4CF009334039FBF14
:10185000F1E0DF1208C086E695E09F938F930E9427
:1018600077320F900F9080915704882309F497C026
:101870001092570420915804233008F490C08091AE
:1018800097038A3509F473C3FF24F39480E0CF2CC7
:10189000D12CEE24E39408C02FB7F894909158040B
:1018A000191709F479C02FBF10915804012F0F198F
:1018B00099F390E0402F50E0481B590BB601680F98
:1018C000791F69567C4F89569C4F0E944B3D109260
:1018D0002602E0925704802FDFCF82E389831A82A9
:1018E0000E9441276B017C01910142E061E0F80117
:1018F000848595850E94AC180E944127DC01CB01AC
:101900008C199D09AE09BF0981329340A105B1052B
:1019100008F0CEC1998197FD05C2C818D908EA0818
:10192000FB08D80153968C918823C1F02FEF280F24
:1019300041E050E002C0440F551F2A95E2F7052E02
:10194000000C660B770BC40ED51EE61EF71E04C0F6
:10195000F694E794D794C7948A95D2F7BFEFCB1645
:10196000D104E104F10408F03BC22A8130E0220FE7
:10197000331F892F90E0982F8827990F822B932B64
:10198000F8012289E20FF11DC58A868B978B2D5FA6
:10199000D80152962C93CACD009358042FBF0E94B1
:1019A00041276B017C01288D398D4A8D5B8D621B2F
:1019B000730B840B950B8090330290903402A090AF
:1019C0003502B09036023FEF831A930AA30AB30A96
:1019D0008092330290923402A0923502B092360285
:1019E00040902F025090300260903102709032028D
:1019F000460E571E681E791E40922F0250923002EA
:101A000060923102709232026115710541E08407E3
:101A1000910508F095C19B01AC010E94923CDC014C
:101A2000CB0181509F4FAF4FBF4F892F9A2FAB2FC4
:101A3000BB2740912B0250912C0260912D02709196
:101A40002E02840F951FA61FB71F84179507A607A0
:101A5000B70718F48FEF9FEFDC0180932B02909370
:101A60002C02A0932D02B0932E0240916F02509150
:101A7000700260917102709172025C546B437B4FF3
:101A80002F2DC416D506E606270B27FDDECBBF9308
:101A9000AF939F938F937F926F925F924F92BF927B
:101AA000AF929F928F9285E991E19F938F930E94CD
:101AB00077326DB77EB7625F7F4F0FB6F8947EBF07
:101AC0000FBE6DBF80916F0290917002A091710264
:101AD000B0917202C816D906EA06FB0698F4809106
:101AE0006B0290916C02A0916D02B0916E02019612
:101AF000A11DB11D80936B0290936C02A0936D02A7
:101B0000B0936E02C0926F02D0927002E0927102A6
:101B1000F092720210922B0210922C0210922D025F
:101B200010922E0210922F02109230021092310267
:101B30001092320210923302109234021092350247
:101B40001092360282CBA98881E089831A821B8297
:101B50001C82910143E061E0848995890E94AC1860
:101B600069817A818B819C810E94C43C272F382F08
:101B7000492F55272C8B3D8B4E8B5F8B37E039835C
:101B80001A82910142E061E0D40154968D919C91BA
:101B900055970E94AC18EC88FD880E891F89002794
:101BA0001127B401605F7F4FCA80A3019201C40175
:101BB0000C960E94BF15BC89B0FFE6CB2ECCA9883D
:101BC0001B861C861D861E869E01255F3F4F44E0B6
:101BD00061E0F401848995890E94AC186B857C854D
:101BE0008D859E850E94C43CD62EF72EB401605F81
:101BF0007F4FC12CED2C8C01A3019201C4010C96E6
:101C00000E94BF15D2FEC0CB08CCA988B9821A8227
:101C10001B821C82910144E061E0848995890E94C5
:101C2000AC1869817A818B819C810E94C43C6B01D4
:101C30007C01BFE0B9831A82910142E061E0F401C6
:101C4000848995890E94AC18870176011127B40117
:101C5000605F7F4FCA80A3019201C4010C960E946D
:101C6000BF1592CB8FE789838EEF8A830E9441272D
:101C70006C8B7D8B8E8B9F8B910142E060E0F80135
:101C8000848595850E94AC180E9441276B017C01D8
:101C9000DC01CB012C893D894E895F89821B930B26
:101CA000A40BB50B81329340A105B10508F4A5C082
:101CB000D80152968C91F801E80FF11D758A92E0D7
:101CC000968B178A8D5FF801828B30CCFC01318DA9
:101CD000308F7894AC01415F5F4F5F934F931F92B9
:101CE0002F9387891F928F9389811F928F931F93C0
:101CF0000F930E947732EDB7FEB73A960FB6F8947D
:101D0000FEBF0FBEEDBF92CC2A893B89E217F307D5
:101D100009F0E3C0809590E02A8530E082179307B0
:101D200009F40AC1D80152968C91F801E80FF11D0F
:101D3000758A93E0C5CFC88ED98EEA8EFB8EACCA69
:101D40006115710550E18507910508F083CE8B017F
:101D50009C0101501F4F2F4F3F4F5527432F322FCC
:101D6000212F0E94923CDC01CB0140912B0250912B
:101D70002C0260912D0270912E02840F951FA61FD8
:101D8000B71F63CED09075028D2D807F803109F012
:101D90000CCD1B1508F467CD8B2D90E0FC01ED58A0
:101DA000FD4F20812E3709F000CDAC014F585D4F1B
:101DB0004A01FC01EE58FD4F9081DA018C91292FE8
:101DC00030E07901F82A6DEF6B0D84E792E00E9414
:101DD0005727E816F90609F476C1C0907402E5CCDD
:101DE000F8018289E80FF11D758A91E0968B178AB8
:101DF0008D5FD80152968C9399CB80EC89831A829F
:101E0000910142E061E0D8011C968D919C911D9753
:101E10000E94AC1849812A81942F9227892F82959C
:101E20008F709827892F869586958927982F969564
:101E3000892780FD95C046FFD4C0F8018289E80F4C
:101E4000F11D758A25E0268B178A8D5FD801529681
:101E50008C936CCBD8011C96ED91FC911D976480FE
:101E6000B281BC8B538040E06B2F752D862D0E9474
:101E7000C72A0E9441276B017C01E0E1CE0ED11CF4
:101E8000E11CF11C0E9441272F2DC616D706E8063B
:101E9000290B27FFF7CFF89441E06C89752D862D2B
:101EA0000E94C72A0E9441276B017C017894D101CE
:101EB000EAE01D92EA95E9F7F4E8F98323E22A8340
:101EC00091014AE061E0D8011C968D919C911D978B
:101ED0000E94AC18FE01339685E09191892728E095
:101EE00030E005C0880F2150310909F40DCF87FF7C
:101EF000F9CF880F8425F7CF548965899089218986
:101F0000328943898F5F858F78946F935F934F9366
:101F10003F932F939F9389811F928F931F930F93CA
:101F20000E9477324DB75EB7465F5F4F0FB6F894A9
:101F30005EBF0FBE4DBF02CA898584FF49C08B8139
:101F400087FD91C0D80152968C91F801E80FF11DE0
:101F5000758AB4E0B68B178A8D5FF801828BE6CA6A
:101F6000F8018289E80FF11D758A93E03FCF8091D7
:101F70009803853A09F088CC80919903823008F45F
:101F800083CC30E022503109482F50E042175307EC
:101F90000CF005CD63E0F62EF80E2BE933E03F930D
:101FA0002F9381501F928F9380919A031F928F934A
:101FB0008DE191E19F938F930E9477322DB73EB7C9
:101FC000285F3F4F0FB6F8943EBF0FBE2DBF5ECCCB
:101FD000D80152968C91F801E80FF11D758AB5E091
:101FE000B9CFC818D908EA08FB08F80133893323A8
:101FF000C9F08FEF830F61E070E002C0660F771FBA
:102000008A95E2F7CB01092E000CAA0BBB0BC80E78
:10201000D91EEA1EFB1E04C0F694E794D794C79419
:102020003A95D2F77FEFC716D104E104F10408F026
:102030003FC0842F90E0AC01542F4427550F550F1B
:10204000F4E02F9FC0011124842B952BD8015296C8
:102050002C91F801E20FF11DC58A868B978B2D5FBD
:10206000F801228B63CAC818D908EA08FB08F1E511
:10207000CF16F5E5DF06E104F104D0F42C8130E061
:10208000220F331F90E0982F8827990F822B932BD4
:10209000D80152963C91F801E30FF11D2F8126954E
:1020A0002F73258B868B978B3D5FF801328B3ECA51
:1020B000D80152968C91F801E80FF11D758A91E0D4
:1020C000FFCD11E098CB802F8D7F80932A028091E5
:1020D0000802D81202C181E08D0D8F70806180935B
:1020E0000802B6E78B16B2E09B0609F008F4BEC002
:1020F000E6E7F2E0BE8ECDB6DEB68F010F5F1F4F72
:102100002081222309F4E6C0E5E6F5E08491281752
:1021100008F0E0C030E0220F331F220F331F220FE0
:10212000331FF901E251FD4FE4914DB75EB764E012
:10213000E69F4019510911240FB6F8945EBF0FBEF7
:102140004DBF8DB79EB70196F901E051FD4F449107
:10215000F901EF50FD4F65917491FB01640F711D02
:10216000AC01DD8ACC8A9D8F8C8FE617F70709F4C6
:1021700082C08016910608F46EC0A491A53028F1A3
:10218000A73009F068C02801BFEF4B1A5B0AD801DD
:10219000AC9082010A0D111D8016910608F45BC0F7
:1021A000B12CC12CD12CDA01AD92BD92CD92DC9232
:1021B0001397612C712C14964D925D926D927C92C6
:1021C0001797485F5F4F3196D0CF7A0184E0E80ED1
:1021D000F11C68019FEFC91AD90AD8011C91912FEF
:1021E0009F77492E512C612C712C012F00760036DF
:1021F000A9F117FF3EC086010F5F1F4FD80111974D
:102200008C91440C551C661C771C440C551C661C98
:10221000771C440C551C661C771C440C551C661C12
:10222000771C440C551C661C771C440C551C661C02
:10223000771C440C551C661C771C982F9F77492AE5
:1022400087FDDACFDA014D925D926D927C92139701
:10225000A70131968ACF87E00E94FB39B0EE4B2A66
:1022600055245A94652C762CC4CFBE8CDD24D3948F
:10227000C5CA8601E7CFCC88DD888C8D9D8D4091C5
:102280002702442331F0F901E151FD4FE491E0FFD1
:1022900011C02D503D4FF90125913491F901199547
:1022A0000FB6F894DEBE0FBECDBE08151905E8F6D0
:1022B000F80121CF809128021F928F93E4EAF1E187
:1022C000FF93EF930E9477320FB6F894DEBE0FBEF5
:1022D000CDBEEBCF85E00E94FB391B2D84CA0F9346
:1022E0001F93CF93DF938C0180913F029091400226
:1022F000892B09F04BC060913E0270E0623071059D
:102300002CF482E080933E0262E070E0E0913A02B9
:10231000F0913B024DB75EB741505F4F44275A954D
:102320009F01C0E0D0E0C901860F971F48175907E9
:1023300030F121969C01C115A4E0DA07A1F78E1BAC
:102340009F0B0E945432D0934002C0933F0290935F
:102350003D0280933C020E94E329F8018081918133
:10236000A281B3818093410290934202A0934302E1
:10237000B0934402DF91CF911F910F910895209760
:1023800011F0C901DCCF80E10E94FB398DE00E9491
:10239000FB39CF932091380230913902232B91F4ED
:1023A000FC01C0818C2F90E0880F991F880F991F26
:1023B0000E9454329093390280933802C0933702BE
:1023C000CF9108958AE00E94FB3980913F0290915D
:1023D00040029F938F9321E030912702311101C079
:1023E00020E01F922F93209144022F9320914302CB
:1023F0002F93209142022F93209141022F9321E0AD
:10240000892B09F420E01F922F9386E891E19F9396
:102410008F930E9477328DB79EB70C960FB6F894C3
:102420009EBF0FBE8DBF0895FC01808982FD19C03B
:102430008460808B1092260281E080934502448163
:1024400055816681778180859185A285B385840FCA
:10245000951FA61FB71F84839583A683B78381E04A
:10246000089584898F5F848BE5CFFF920F931F932C
:10247000CF93DF93EC01F88483E08F1508F145E4F6
:1024800050E065E372E188810E949C298C0184E11F
:1024900092E1F801938382836CE574E38C810E945E
:1024A000CB29F80195878487FC01858180FF0BC0CB
:1024B000F801F18ADF91CF911F910F91FF9008955C
:1024C00083E20E94FB3982E20E94FB398F929F9245
:1024D000AF92BF92EF92FF920F931F93CF93DF9330
:1024E0001F921F92CDB7DEB77C016FE176E1FC0150
:1024F00080810E94CB298C0189EB89831A820E94FA
:1025000041274B015C019E012F5F3F4F42E061E09C
:10251000F801848595850E94AC180E944127F80136
:1025200021892F9320892F932A811F922F9323890A
:102530001F922F9327852F9326852F93DC01CB01A4
:1025400088199909AA09BB09BF93AF939F938F93E9
:10255000BF92AF929F928F92F70180811F928F93CB
:1025600084E591E19F938F930E9477320FB6F894A0
:10257000DEBF0FBECDBF0F900F90DF91CF911F91A7
:102580000F91FF90EF90BF90AF909F908F90089524
:102590004F925F926F927F928F929F92AF92BF9273
:1025A000DF92EF92FF920F931F93CF93DF931F92CF
:1025B0001F92CDB7DEB77C01FC01D0806FE176E1E0
:1025C0008D2D0E94CB298C01F70180859185A285F4
:1025D000B385892B8A2B8B2B99F1C8010E94EB358F
:1025E000F70184819581A681B781F8018483958361
:1025F000A683B783F70180859185A285B385F8010D
:1026000080879187A287B38781E0828B118A108AA5
:1026100017861686138AC8010E943D360F900F90C8
:10262000DF91CF911F910F91FF90EF90DF90BF90BE
:10263000AF909F908F907F906F905F904F90089594
:10264000C8010E94EB35F801128A8DE289831A8253
:102650000E9441274B015C019E012F5F3F4F42E0EA
:1026600060E0F801848595850E94AC180E9441279E
:102670002B013C0181E2F82E99EBE92E03C0FA947C
:10268000FF20C1F0E9821A829E012F5F3F4F42E096
:1026900061E0F801848595850E94AC188A818F7766
:1026A00049F0813260F76D2DC8010E948317FA94BA
:1026B000F110E8CFF8018389882331F06D2DC8012E
:1026C0000E945D17F8018389F80191899F93908991
:1026D0009F939A811F929F931F928F9387858F93C9
:1026E00086858F93D301C20188199909AA09BB096C
:1026F000BF93AF939F938F93BF92AF929F928F920E
:102700001F92DF9284E591E19F938F930E9477322D
:102710000FB6F894DEBF0FBECDBF80CF8F929F92D1
:10272000AF92BF92FF920F931F93CF93DF938C01D1
:102730006FE174E1FC0180810E94CB29EC010E94D1
:10274000EB358F8D98A1892B09F058C0F8010481D1
:102750001BA1FF24F394002339F16C897D898E89B4
:102760004F2D0E94C72A21E001111CC014FB8827AD
:1027700080F991E08927281741F08F89988DA98DDC
:10278000BA8D892B8A2B8B2B89F410711F291BA3DF
:10279000DF91CF911F910F91FF90BF90AF909F90CD
:1027A0008F90089520E0E2CFF12CD7CF0E944127EF
:1027B0008F88988CA98CBA8CDC01CB01880D991D6F
:1027C000AA1DBB1D888B998BAA8BBB8B8C839D8389
:1027D000AE83BF838AED97E29B838A831071146076
:1027E0001F291BA3CE01DF91CF911F910F91FF9065
:1027F000BF90AF909F908F900C943D3682E10E94E5
:10280000FB39CF93DF93EC016FE174E188810E9483
:10281000CB29F894FC01278D30A1232B69F44C813E
:102820005D816E817F81FC01438F548F658F768F30
:102830007894DF91CF91089584E10E94FB39CF9283
:10284000DF92EF92CF93DF93EC0161E08885998569
:10285000AA85BB85892B8A2B8B2B09F460E08C81A0
:102860000E94EF256B01E82E44E250E06FE174E135
:1028700088810E949C29FC01C48AD58AE68A21E0CD
:10288000488559856A857B85452B462B472B09F45E
:1028900020E04C855D856E857F85452B462B472B3B
:1028A000B1F430E0232BFC0123A3488959896A89BC
:1028B0007B89478B508F618F728F6AE070E04F96F3
:1028C000DF91CF91EF90DF90CF900C942D2A30E1E3
:1028D000E9CFCF92DF92EF92FF920F931F93CF93A6
:1028E000DF938C016FE174E1DC018C910E94CB29B4
:1028F000EC010E94472AFC01D8011496CD90DD908E
:10290000ED90FC901797C282D382E482F5821896EC
:102910004D915D916D917C911B97468357836087A4
:102920007187F894118210828F8D98A1892B81F084
:10293000A9A1BAA1ED93FC93FAA3E9A37894DF913E
:10294000CF911F910F91FF90EF90DF90CF9008955E
:10295000FAA3E9A3F8A3EF8F8BA182FD25C0C88A53
:10296000D98AEA8AFB8A982F94609BA381FD10C0C4
:10297000CE010E94EB35CC82DD82EE82FF828AEDB1
:1029800097E29B838A83CE010E943D367894D7CF0D
:102990004C815D816E817F81872F4C155D056E05B1
:1029A0008F0987FFE5CFF2CF488959896A897B89EA
:1029B000972F4C155D056E059F0997FFD0CF83E1DA
:1029C0000E94FB39AF92BF92CF92DF92EF92FF92BB
:1029D0000F931F93CF93DF93CDB7DEB77C01ADB6D6
:1029E000BEB6FC01C08066E475E18C2D0E94CB2947
:1029F000F701648140855185D4842DB73EB72D19E8
:102A000031090FB6F8943EBF0FBE2DBFEDB7FEB72C
:102A100031967F018F012D2DFC0180810E94B41A17
:102A2000FF92EF921F92DF921F92CF9289E591E180
:102A30009F938F930E9477322DB73EB7285F3F4F09
:102A40000FB6F8943EBF0FBE2DBF0FB6F894BEBEB2
:102A50000FBEADBEDF91CF911F910F91FF90EF9010
:102A6000DF90CF90BF90AF900895CF93DF93EC01AC
:102A700066E475E188810E94CB29488559856C817F
:102A8000FC018081DF91CF910C943E1BEF92FF926D
:102A90001F93CF93DF93EC018C85182F1F7741E0B4
:102AA00050E066E475E188810E949C297C018C815C
:102AB0009D81AE81BF81892B8A2B8B2BF1F4809174
:102AC000BC0082FD10C061E089E10E94EF2561E059
:102AD00088E10E94EF251092B90088E48093B80045
:102AE00084E08093BC00812F880FF7018083DF9101
:102AF000CF911F91FF90EF90089581E30E94FB39E1
:102B00000F931F93CF93DF938C0166E578E1FC016F
:102B100080810E94CB29EC010E94EB35F801848171
:102B20009581A681B7818C839D83AE83BF83808589
:102B30009185A285B38588879987AA87BB87892BCA
:102B40008A2B8B2B29F4DF91CF911F910F91089540
:102B500084859585A685B7858C879D87AE87BF8739
:102B600080899189A289B389888B998BAA8BBB8B29
:102B7000CE01DF91CF911F910F910C943D364F9272
:102B80005F926F927F928F929F92AF92CF92EF92CD
:102B9000FF920F931F93CF93DF93EC014B0127011B
:102BA00038011F92CF927F926F925F92EF925F9364
:102BB0004F933F932F931F92AF928EE591E19F9396
:102BC0008F930E9477328DB79EB70E960FB6F8940A
:102BD0009EBF0FBE8DBF88819981AA81BB81E816F7
:102BE000F9060A071B0750F0F40180819181A28148
:102BF000B3818E159F05A007B10720F480912702AD
:102C0000882379F0DF91CF911F910F91FF90EF9082
:102C1000CF90AF909F908F907F906F905F904F90EC
:102C200008958DE10E94FB39FC0192899460928B9A
:102C30001092260281E08093460280E008950F936F
:102C40001F93CF93DF938C0146E450E06FE176E170
:102C5000FC0180810E949C29EC0184E196E19B8328
:102C60008A836CE574E3F80184810E94CB299D87F7
:102C70008C87DF91CF911F910F910895FC014481C2
:102C8000558166817781208580810C94E519EF92CA
:102C9000FF920F931F93CF93DF937C0161EC76E15A
:102CA000DC018C910E94CB298C010E94472AEC0107
:102CB000F70184819581A681B7818A839B83AC8348
:102CC000BD83808591859F838E83F89419821882B5
:102CD000D80151968D919C915297892BB9F15396B9
:102CE000ED91FC915497D183C0835496DC93CE939D
:102CF000539780E090E07894892B39F4DF91CF915D
:102D00001F910F91FF90EF900895C8010E94EB353D
:102D1000D80112968D919C9113978C579442F1F0A3
:102D20008A819B81AC81BD8127EF33E2F801338337
:102D3000228384839583A683B783C801DF91CF91D3
:102D40001F910F91FF90EF900C943D36F801D48BBA
:102D5000C38BD28BC18B81E090E0CDCF8A819B81E8
:102D6000AC81BD81F8014481558166817781272F2F
:102D7000481759076A072B0B27FFD6CF80E20E941E
:102D8000FB39CF92DF92EF92CF93DF93EC0148852E
:102D900059856A857B852C858C810E94E5196B019C
:102DA000E82E45E150E061EC76E188810E949C29A3
:102DB000FC01C086D186E28688899989908B8787B5
:102DC0008C899D89AE89BF8983879487A587B687BB
:102DD00087EF93E29383828368E070E0CF014196AE
:102DE000DF91CF91EF90DF90CF900C942D2ADF925E
:102DF000EF92FF920F931F93CF93DF93EC01D8884C
:102E000083E08D15B0F16CE574E388810E94CB29D5
:102E10007C018AE090E00E9454328C0161E08C8158
:102E20000E948E2AF80160837183828360E0888526
:102E30000E94EF25F80163837483858360E08C85AD
:102E40000E94EF25F801668377838087D186F7019A
:102E50008581982F967081F4F70111830083826039
:102E60008583DF91CF911F910F91FF90EF90DF90BD
:102E700008958BE10E94FB390E94A9180F931F93BC
:102E8000CF93DF93EC01F8940E94412708851985C0
:102E90002A853B85DC01CB01800F911FA21FB31F48
:102EA0008C839D83AE83BF83CE010E943D36789490
:102EB000DF91CF911F910F910895CF93DF93EC0194
:102EC00044969F938F938B891F928F938F858F93B7
:102ED0008E858F931F926F938FE491E19F938F93D1
:102EE0000E9477321B8A8E859F8501969F878E87E9
:102EF0008DB79EB70A960FB6F8949EBF0FBE8DBFD2
:102F0000DF91CF910895DF92EF92FF920F931F937D
:102F1000CF93DF93CDB7DEB729970FB6F894DEBF16
:102F20000FBECDBF8C01F62E9E012F5F3F4F89E073
:102F3000F90111928A95E9F782EF898349E061E00E
:102F4000F801848595850E94AC18F801838990E08A
:102F50009C012C5E3F4FE20FF31F3B81232F207F0C
:102F600021F1203F11F12FEF24832383228321833A
:102F7000F801E80FF91F248BF80183898B5F838B9D
:102F80008E3208F05EC0F801828981FD4FC029961B
:102F90000FB6F894DEBF0FBECDBFDF91CF911F916A
:102FA0000F91FF90EF90DF9008954D81242F207FA7
:102FB000C9F52F81522F507F11F0503FA1F658854F
:102FC000503989F659855F77E52E50E25E1558F243
:102FD000D801A80FB91F5A8154965C938C818183C4
:102FE0008E818283822F90E03F71BC01660F771F34
:102FF00062957295707F7627607F7627362B3383B4
:10300000880F991F880F991F80764F71482B448332
:10301000F80183898B5F838B4EEFD42EDE0C8E32CA
:10302000B8F012C0203F09F09ECFC3CFC8010E9464
:10303000EB35F80182898B7F828BC8010E943E1795
:10304000A6CF8EEFD82EE12C6F2DC8010E945D1700
:10305000FEE1FE1530F4F801808991890196918B8B
:10306000808BFEE1FD1508F48ECF1092260281E0E0
:10307000809346028CCFFC011092260281E080935F
:10308000470287898160878B44815581668177817A
:1030900080859185A285B385840F951FA61FB71FD4
:1030A00084839583A683B78381E00895FF920F936D
:1030B0001F93CF93DF93EC01F88483E08F15E0F04A
:1030C00048E150E066E578E188810E949C298C0106
:1030D0008BE398E1F801938382836CE574E38C8140
:1030E0000E94CB29F801958B848BF68ADF91CF91D2
:1030F0001F910F91FF9008958EE10E94FB39CF92AE
:10310000DF92FF920F931F93CF93DF93EC016CE557
:1031100074E38C810E94CB296C01F8840F2D10E0A0
:10312000A8014D5F5F4F6FE778E188810E949C297D
:10313000FC01D182C082F2826C857D85A801039654
:10314000DF91CF911F910F91FF90DF90CF900C9462
:10315000423D8BE10E94FB396F927F928F929F924A
:10316000AF92BF92CF92DF92EF92FF920F931F9395
:10317000CF93DF934C01E62E142F6901DC011596E5
:103180007C901597872D867009F451C071FC39C069
:10319000F401908181819CBD8DBDF72DF1706F2E62
:1031A00070FCC8C0EE2009F49CC08FEF810F112382
:1031B00051F0F60190819EBD0DB407FEFDCF9EB586
:1031C00091938150B8F7662091F1072D06950695E9
:1031D0000695402F40954170D40112966D917D91D6
:1031E0008C91DF91CF911F910F91FF90EF90DF9025
:1031F000CF90BF90AF909F908F907F906F900C94E6
:10320000C72AED91FC914185427066817781808566
:103210000E94C72AB72DB1706B2E70FC17C0D40165
:10322000CD91DC91AA24AA94A10E111126C0DF91A0
:10323000CF911F910F91FF90EF90DF90CF90BF90B3
:10324000AF909F908F907F906F900895072D069577
:1032500006950695402F4170F40162817381848147
:103260000E94C72AD401CD91DC91AA24AA94A10E70
:10327000112309F4AECF66246394B12C8FEFA81A02
:10328000B80AAC0CBD1CD601FC9008E010E08985A2
:1032900080FF35C0EE81FF81888580834F2D407887
:1032A0006B817C818D810E94C72AFF0CEE81FF819A
:1032B00088858083110FE881F98190818A81892333
:1032C00091E009F490E0192B015009F7EE2011F07C
:1032D000F6011083FFEFCF1ADF0AAC14BD0499F694
:1032E00072CFF6019601210F311D2E173F0709F409
:1032F0006ACF81918EBD0DB407FEFDCFF6CF4F2D65
:1033000040786B817C818D810E94C72AFF0CEE8101
:10331000FF8188858083110FE881F98190818A81FE
:10332000892391E009F490E0192BEE81FF818885D3
:103330008083CACF73FA442740F9F4016281738114
:1033400084810E94C72A662463942CCFCF93DF9395
:10335000EC016CE574E388810E94CB2928853985CE
:103360004C8160E0DF91CF910C94AC18FF920F93E9
:103370001F93CF93DF93EC0118816CE574E3812FE9
:103380000E94CB290C81F884C9852F2D3C2F402F1A
:1033900061E00E94AC18CF93FF921F920F931F928F
:1033A0001F9383E691E19F938F930E9477328DB7AD
:1033B0009EB708960FB6F8949EBF0FBE8DBFDF91E3
:1033C000CF911F910F91FF900895CF92DF92EF92CE
:1033D000FF921F93CF93DF936A017B0163E875E04F
:1033E000FB019491981749F0675F7F4FF6E06331D6
:1033F0007F07B1F784E30E94FB39FB013896949173
:1034000091FF1AC030EAC3163FE5D306E104F10488
:1034100008F483C0C0E8CC16CEE7DC06C1E0EC06B9
:10342000F10408F090C0D0E4CD16DFEBDD06E10436
:10343000F104C8F414E022C0F8EBCF16F7E4DF067D
:10344000E104F10490F0A0ECCA16AEE3DA06A1E0C4
:10345000EA06F10408F475C0C114BBEFDB06B4E062
:10346000EB06F10438F315E009C037EFC31638E076
:10347000D306E104F10408F05FC011E0FB013396CC
:10348000A591B491FB013596C591D491FB01379676
:103490003491E82FE695E695E695F0E0EE0FFF1FF4
:1034A000E559FA4F459154918770E1E0F0E07F01D2
:1034B00001C0EE0C8A95EAF7FB013196C590D490D5
:1034C000892F8170A038B10509F44BC0EFB7F8948B
:1034D0009881977011F0191341C0188381112EC083
:1034E0009FB7F894622F70E0E601798368839FBFED
:1034F0009C913160392B3C93DA0111969C91119784
:10350000E92A1196EC92EFBFB601DF91CF911F919E
:10351000FF90EF90DF90CF900895A8EDCA16A7E234
:10352000DA06E104F10468F4B7EFCB16B8E0DB0685
:10353000E104F10408F4A1CF12E0A0CFE601288352
:10354000D7CF13E09BCFC114EBEFDE06E4E0EE062D
:10355000F10410F416E092CF17E090CF82E30E94BE
:10356000FB3983E30E94FB397F928F929F92AF9247
:10357000BF92CF92DF92EF92FF920F931F93CF9360
:10358000DF93782EC62F942EB52E822E0E944127CF
:103590006B017C0120E8C20E28E3D21E21E0E21E6E
:1035A000F11CC701B6010E94772A7092BB0084E823
:1035B0008093BC00C701B6010E945B2AAA24AA948A
:1035C000AC0ECC23B1F0C92DDB2DB12C8FEFA81A96
:1035D000B80AAC0EBD1E94E8992E89918093BB0069
:1035E0009092BC00C701B6010E945B2AAC16BD06D2
:1035F000A1F7C701B6010E94772A872D81608093C9
:10360000BB0084E88093BC00C701B6010E945B2A1E
:10361000DFEFD80D882009F15801CD2F84EC982ECA
:10362000CC2369F09092BC00C701B6010E945B2ACE
:103630008091BB00F50181935F01C15099F7F801BA
:10364000ED0FF11DEF0184E88093BC00C701B601C6
:103650000E945B2A8091BB00888384E98093BC0030
:10366000DF91CF911F910F91FF90EF90DF90CF905E
:10367000BF90AF909F908F907F900895BF92CF9210
:10368000DF92EF92FF920F931F93CF93DF93D82F88
:10369000C62FB42E152F0E9441276B017C0120E814
:1036A000C20E28E3D21E21E0E21EF11CC701B601C2
:1036B0000E94772AD093BB0084E88093BC00C701A6
:1036C000B6010E945B2A0FEF0C0FCC23A9F0CB2D83
:1036D000D12F10E00F5F1F4F0C0F1D1F84E8B82E75
:1036E00089918093BB00B092BC00C701B6010E94D3
:1036F0005B2AC017D107A1F784E98093BC00DF9152
:10370000CF911F910F91FF90EF90DF90CF90BF90DE
:1037100008951F93CF93DF93EC01162FAC89BD89D9
:103720001097B9F01296ED91FC9113978D919C91A1
:1037300011979D8B8C8B11961C921E9213961C9246
:103740001E921297612FCD011995AC89BD891097F2
:1037500049F71092260281E080934802DF91CF91D1
:103760001F910895FC013897968990FF08C0608DDD
:10377000678B9A7F9460968BCF010E94891B80E0B3
:103780000895FC0186898460868B1092260281E070
:10379000809348024481558166817781808991892F
:1037A000A289B389840F951FA61FB71F84839583B1
:1037B000A683B78381E00895FC01A085B1859C9123
:1037C00082858923D1F0818D80958170C9F4838DA4
:1037D000815031F1838F448155816681778187855E
:1037E0009089A189B289840F951FA61FB71F848372
:1037F0009583A683B78381E00895818D817039F325
:1038000086ED9AE29383828383899489A589B68918
:1038100084839583A683B783828D838F81E0089507
:10382000A789B08D56969C915697892F817090FFED
:10383000E3CF648D57966C9357979A7F9460569612
:103840009C935697CD010E94891B80E00895FC014E
:1038500080917A0086FF0EC084819581A681B78110
:103860008853984FAF4FBF4F84839583A683B78308
:1038700081E00895828D90910902981781F09F3F11
:1038800059F780930902982F987090937B00877066
:10389000806480937C0087ED80937A00DDCF8FEF8A
:1038A000809309022091780030917900858D968D62
:1038B000891780F544895589240F351F8F5F358B13
:1038C000248B858F891760F1868997892817390796
:1038D000C8F1808D918D82179307A0F1138E1092FD
:1038E000260281E080934902408951896289738967
:1038F00080859185A285B385840F951FA61FB71F6C
:10390000808B918BA28BB38B84839583A683B783A3
:1039100081E0089581E0358B248B858F8917A0F68F
:10392000448155816681778184859585A685B78593
:10393000840F951FA61FB71F84839583A683B78323
:1039400081E00895838D8F5F838F948D891738F27E
:10395000809127028111C2CF8AE10E94FB39EF9248
:10396000FF921F93CF93DF937C01FC01108166E2ED
:103970007DE1812F0E94CB29EC01F8948E8980FF94
:1039800009C0F70164816F8B8A7F84608E8BCE01C2
:103990000E94891BCE010E94EB35CE0108960E9441
:1039A000EB351E8A8F8978941F921F921F921F9267
:1039B0001F928F931F921F921F921F938DE691E18A
:1039C0009F938F930E9477328DB79EB70C960FB658
:1039D000F8949EBF0FBE8DBFDF91CF911F91FF90D6
:1039E000EF900895CF93FC01C0816CEB7DE18C2FAB
:1039F0000E94CB29FC01F894818D33894489558933
:103A000066897894A085B1852C919285922321E0D6
:103A100009F420E01F922F936F935F934F933F938E
:103A2000869581701F928F931F92CF9382E791E1C9
:103A30009F938F930E9477328DB79EB70C960FB6E7
:103A4000F8949EBF0FBE8DBFCF91089549E150E01D
:103A500066E27DE1FC0180810E949C2921EC3BE132
:103A6000FC013383228322EB3BE1338722870895D5
:103A7000EF92FF920F931F93CF93DF938C0166E237
:103A80007DE1FC0180810E94CB29EC01F8948E89B4
:103A900080FF13C07E01F8E0EF0EF11CC7010E9409
:103AA000EB35F80184819581A681B7818C879D874C
:103AB000AE87BF87C7010E943D367894DF91CF91D2
:103AC0001F910F91FF90EF9008950F931F93CF9345
:103AD000DF938C016CEB7DE1FC0180810E94CB299E
:103AE000EC010E94EB35F80184819581A681B781B4
:103AF0008C839D83AE83BF8380859185A285B385AA
:103B00008F87988BA98BBA8B84858A8F882361F1E4
:103B1000F80140895189628973894B875C876D8779
:103B20007E8726ED3AE23B832A838B8F84899589B1
:103B3000A689B789892B8A2B8B2BA1F482E0898FE8
:103B400066E27DE1F801808D0E94CB29988F8F8BF2
:103B5000F801848D8C8FCE01DF91CF911F910F9151
:103B60000C943D3683E0EBCF188E1F8A198EDF91BF
:103B7000CF911F910F9108950F931F93CF93DF93D0
:103B8000EC014DE150E06CEB7DE188810E949C29C5
:103B90008C0168858C810E948E2AF801608771876C
:103BA0008287DF91CF911F910F910895CF93DF937B
:103BB000EC010E94EB35CE0108960E94EB35EC89B2
:103BC000FD89309751F09081818113821282118298
:103BD0001082E92FF82F3097B1F71D8A1C8A188EB2
:103BE0001F8A1E8ADF91CF9108950F931F93CF9361
:103BF000DF938C0166E27DE1FC0180810E94CB298C
:103C0000EC01F8940E94D61D81E08E8BF80184812E
:103C10009581A681B7818C839D83AE83BF83808588
:103C20009185A285B385888B998BAA8BBB8B892BB9
:103C30008A2B8B2B19F0CE010E943D36F80184852A
:103C4000888F7894DF91CF911F910F910895CF9332
:103C5000DF93EC016A8D662309F453C0FC0150E048
:103C600031E020E0A38DB48D4C91958D942309F023
:103C7000532B2F5F330F33962613F4CF2C85922FBF
:103C8000952729F08D85852780959823D9F4888DEF
:103C90005D8787FD03C0815070F1888F4C815D8105
:103CA0006E817F8188859985AA85BB85840F951F44
:103CB000A61FB71F8C839D83AE83BF8381E0DF91F6
:103CC000CF910895982F909529238523822B8C8757
:103CD0009E859830E0F621E0290F2E87FE01E90F3E
:103CE000F11D87871092260281E080934A028FEFB0
:103CF000888F5D87D3CF1092260291E090934A027D
:103D0000CCCF50E0BBCFAF92BF92DF92EF92FF9249
:103D10000F931F93CF93DF93FC01A485B585968500
:103D200047855089E18822893389F488A588B68837
:103D30007789008D118DD28C808586279C9384FD98
:103D400020C085FD22C086FD24C087FD26C09C932F
:103D5000862F8295807F808768279C9364FD2AC088
:103D600065FD25C066FD1CC067FD1EC09C93DF91EC
:103D7000CF911F910F91FF90EF90DF90BF90AF9088
:103D80000895EA01E88285FFDECFE901F88286FF27
:103D9000DCCFE501788387FFDACFE801D882D7CF7F
:103DA000F501708367FFE2CFE801D882DFCFE90138
:103DB000F882D8CFFA01E082D3CF0F931F93CF932D
:103DC000DF938C0169E07FE1DC018C910E94CB29BB
:103DD000FC01D80114969C91828D9817B8F4292F74
:103DE00030E0E901CC0FDD1F2C0F3D1FEF01C20FAA
:103DF000D31FF801648580850E948E2A6B8F7C8F8B
:103E00008D8FDF91CF911F910F91089585E20E94D0
:103E1000FB39CF93FC01C481C930B8F44C2F50E07A
:103E20009A01220F331F420F531F455E5F4F69E017
:103E30007FE1FC0180810E949C29FC01C28F27E266
:103E40003EE133832283CF91089586E20E94FB39BD
:103E50005F926F927F928F929F92AF92BF92CF921A
:103E6000DF92EF92FF920F931F93CF93DF938C011A
:103E7000FC01C080D180E280F38084809580A680A0
:103E8000B78066246A94660E662301F1EA01712CFC
:103E9000FFEF6F1A7F0A640E751E59900E9441272A
:103EA000DC01CB018C199D09AE09BF098815990564
:103EB000AA05BB0598F3652DC8010E94831E0E94C8
:103EC00041276B017C01C615D70539F7F801C0827F
:103ED000D182E282F382DF91CF911F910F91FF9007
:103EE000EF90DF90CF90BF90AF909F908F907F909A
:103EF0006F905F9008950F931F93CF93DF93EC0122
:103F000063EB7FE188810E94CB298C01FC016185F4
:103F10007285838541E00E94C72A488559856C8156
:103F2000C801DF91CF911F910F910C94281F0F931F
:103F30001F93CF93DF93EC0163EB7FE188810E94B5
:103F4000CB298C01FC0161857285838540E00E944C
:103F5000C72A488559856C81C801DF91CF911F918F
:103F60000F910C94281FCF92DF92EF92FF920F9344
:103F70001F93CF93DF93EC014BE150E063EB7FE1C4
:103F800088810E949C298C0160E08C810E94EF2531
:103F9000F80161877287838760E088850E94EF253A
:103FA000F80164877587868760E08C850E94EF251D
:103FB000F8016787708B818B60E088890E94EF250C
:103FC000F801628B738B848B60E08C890E94EF25F3
:103FD000F801658B768B878B60E0888D0E94EF25DA
:103FE000F801608F718F828FF8940E9441276B01D6
:103FF0007C0160E0C8010E94831E0E9441277894E2
:10400000DC01CB018C199D09AE09BF09CC8CDD8C7C
:10401000EE8CFF8C8C159D05AE05BF0548F4C81AC3
:10402000D90AEA0AFB0AF801C482D582E682F7823D
:10403000DF91CF911F910F91FF90EF90DF90CF9084
:1040400008954F925F926F927F928F929F92AF925C
:10405000BF92CF92DF92EF92FF920F931F93CF9375
:10406000DF938C01562E3A01FC0180809180A28062
:10407000B380C480D580E680F780EA012196FA01FA
:104080004080642D607F0E941B300E944127DC012C
:10409000CB0188199909AA09BB098C159D05AE05A4
:1040A000BF0598F3642D6295607FC8010E941B30A4
:1040B0000E9441276B017C01F80180849184A284D5
:1040C000B384F1E05F1639F15A945A94852D90E04B
:1040D0000296680E791E5990652D607FC8010E9476
:1040E0001B300E944127DC01CB018C199D09AE09D0
:1040F000BF0988159905AA05BB0598F3652D62953A
:10410000607FC8010E941B300E9441276B017C0127
:10411000C615D70501F7F801C082D182E282F38289
:10412000DF91CF911F910F91FF90EF90DF90CF9093
:10413000BF90AF909F908F907F906F905F904F90C7
:104140000895CF92DF92EF92FF92CF93DF93FC011D
:10415000A085B18582858C93968581E089278687A5
:10416000C82FC170C688D788E08CF18C97859F5F77
:10417000D1899D1708F05FC0892F86958695869511
:10418000DF01A80FB11D5A962C9130E0892F87705E
:1041900002C0359527958A95E2F72170B701A601EF
:1041A000C217A9F033C0892F869586958695DF01C1
:1041B000A80FB11D5A962C9130E0892F877002C04C
:1041C000359527958A95E2F72170C2131FC04C0DD3
:1041D0005D1D6E1D7F1D9F5F9D1728F38CE993E287
:1041E0009383828384819581A681B781480F591F6B
:1041F0006A1F7B1F448355836683778381E0DF9149
:10420000CF91FF90EF90DF90CF90089597878481B2
:104210009581A681B781480F591F6A1F7B1F448370
:1042200055836683778381E0DF91CF91FF90EF9094
:10423000DF90CF900895B701A601D0CFCF92DF9243
:10424000EF92FF920F931F93CF93DF93EC01E885DA
:10425000F9858A8580830E9441273E8521E02327B6
:104260002E872F852F5F2F87213009F45CC02530E2
:10427000E0F40C811D812E813F814A895B896C8924
:104280007D89DB01CA01800F911FA21FB31F8C83A0
:104290009D83AE83BF8381E0DF91CF911F910F910A
:1042A000FF90EF90DF90CF900895CC80DD80EE807E
:1042B000FF80AB01BC014C195D096E097F098E8935
:1042C0009F89A88DB98D481B590B6A0B7B0BDB01AD
:1042D000CA010296A11DB11DB7FD34C0B595A795C1
:1042E00097958795B595A795979587950A891B8981
:1042F0002C893D89800F911FA21FB31F8E8B9F8B2E
:10430000A88FB98F21EA30E23B832A834C0D5D1DD3
:104310006E1D7F1D840F951FA61FB71F8C839D8365
:10432000AE83BF83B8CF0C811D812E813F81AB014D
:10433000BC01401B510B620B730B4E8B5F8B688F64
:10434000798F9BCFDB01CA010596A11DB11DC6CF98
:10435000EF92FF920F931F93CF93DF937C0169E459
:1043600072E2FC0180810E94CB29EC011E8511FFC5
:1043700007C0DF91CF911F910F91FF90EF900895AB
:10438000F701048160857185F4840B3008F045C025
:10439000FAE0FF1508F441C0402F50E04A960E9411
:1043A000423D1F86117312601E87802F880F880F71
:1043B000880F898BFF0CFF0CFF0CF88A002349F053
:1043C0008A8D8F738A3229F48EE191E29B838A83EE
:1043D0000CC08A899B89AC89BD898E8B9F8BA88FE5
:1043E000B98F81EA90E29B838A83F8940E944127E7
:1043F000DC01CB018058934FAF4FBF4F8C839D831F
:10440000AE83BF83CE010E943D367894DF91CF9179
:104410001F910F91FF90EF90089587E20E94FB3962
:104420000F931F93CF93DF938C0169E07FE1DC0151
:104430008C910E94CB29EC01D8011496EC918F89C4
:104440008E0F8F8BF8948E85E817D0F48E1BF0E0DA
:104450003F96EC0FFD1FDE011F962FEF280F30E077
:10446000205F3F4F2C0F3D1F91919D93A217B307E3
:10447000D9F78E877894DF91CF911F910F9108958E
:104480001E868EEF888F7894DF91CF911F910F91C8
:1044900008957F928F929F92AF92BF92CF92DF92B8
:1044A000EF92FF920F931F93CF93DF93EC0144E2BF
:1044B00050E069E472E288810E949C298C01788432
:1044C0008C809D80AE80BF80CC84DD84EE84FF84B0
:1044D00061E0711001C060E0882D0E948E2AF80111
:1044E00063877487858761E08C2D0E94EF25F80132
:1044F00060877187828788899989AA89BB89828B1D
:10450000938BA48BB58B711018C091E08C149D0413
:10451000AE04BF04C1F080E0892BF8018687DF91EB
:10452000CF911F910F91FF90EF90DF90CF90BF90B0
:10453000AF909F908F907F90089591E18C149D048F
:10454000AE04BF0441F780E2E7CF0F931F93CF93F0
:10455000DF938C0169E07FE1FC0180810E94CB291F
:10456000EC010E94EB35F80184819581A681B78129
:104570008C839D83AE83BF8340855185628573851F
:10458000488759876A877B8780898D878C871E86B5
:104590001F8A8EEF888F8485898F87FD10C0452BF9
:1045A000462B472B29F4DF91CF911F910F9108954E
:1045B000CE01DF91CF911F910F910C943D3684E293
:1045C0000E94FB39CF93DF93EC018E8585FD0DC0F2
:1045D000688579858A8541E00E94C72A8E85807327
:1045E00081608E87DF91CF910895E885F9858A856E
:1045F0002FB7F8949281982B92839181892B818394
:104600002FBF8E85807381608E87DF91CF91089553
:10461000CF93DF93FC01A385B4855C918785982FA8
:10462000977021E030E001C0220F9A95EAF7982FA9
:10463000969596959695DF01A90FB11D5A969C9176
:104640005A9745854523E1F0292B5A962C938F5F85
:1046500090898917E8F4878744815581668177813D
:1046600086899789A08DB18D840F951FA61FB71FCE
:1046700084839583A683B78381E0DF91CF910895EA
:10468000209529235A962C938F5F9089891718F3C8
:10469000EF01CF010E94E2228E8588608E87109202
:1046A000260281E080934B0280E0DF91CF91089554
:1046B000CF93DF93FC01A385B4859C9185858923E5
:1046C000E9F0868584608687878591E0980F9787D3
:1046D000803408F544815581668177818689978980
:1046E000A08DB18D840F951FA61FB71F848395835E
:1046F000A683B78381E0DF91CF910895868582FFFD
:10470000E3CF178688E093E293838283CF01DF9122
:10471000CF910C940823EF01108ACF010E94E2226E
:104720008E8588608E871092260281E080934B02EE
:1047300080E0DF91CF9108950F931F93CF93FC01F9
:10474000C089CC23E9F1868585FD23C0178688E5DD
:1047500093E29383828386899789A08DB18D880F98
:10476000991FAA1FBB1F880F991FAA1FBB1F448137
:10477000558166817781840F951FA61FB71F84839B
:104780009583A683B783C1E08C2FCF911F910F91A2
:104790000895A385B48595852FB7F89484FF21C02B
:1047A00012968C911297892B909512968C93129752
:1047B00011968C911197982311969C932FBFC6CF79
:1047C0008C010E94E222F80186858860868710921B
:1047D000260281E080934B028C2FCF911F910F9185
:1047E000089512968C91129790958923DECF0F939E
:1047F0001F93CF93DF93FC01A189B2898D919C9186
:104800001197928B818B16968D919C911797C085ED
:10481000D185228521113FC02FB7F894AC015527CF
:10482000598348832FBF20914C0230914D0211963D
:104830003C932E93B0934D02A0934C02A189B28970
:10484000109759F5278530898217930741F08385A2
:104850009485A585B6850097A105B10531F480E062
:10486000DF91CF911F910F91089544815581668109
:104870007781840F951FA61FB71F84839583A68316
:10488000B7838CE794E29383828381E0DF91CF91B9
:104890001F910F9108958883C6CF12964D915D9117
:1048A0006D917C911597278530898217930741F088
:1048B00083859485A585B6850097A105B10551F43A
:1048C000448355836683778381E0DF91CF911F9185
:1048D0000F9108950481158126813781800F911FE2
:1048E000A21FB31F2B2F84179507A607270B27FF9F
:1048F000E7CF80E20E94FB3981E20E94FB392F92D0
:104900003F924F925F926F927F928F929F92AF925F
:10491000BF92CF92DF92EF92FF920F931F93CF93AC
:10492000DF9300D01F921F92CDB7DEB77C012DB769
:104930003EB73D832C8366E475E1DC018C910E94D7
:10494000CB299B838A83F701F481F983D7011896D9
:104950006D907C9019971C968D919D910D90BC91B6
:10496000A02D80FD6BC01C012D01569447943794F7
:104970002794F701E088F188C22CD12CF9810F2F00
:1049800010E0C8018C0D9D1D2DB73EB7281B390BBB
:104990000FB6F8943EBF0FBE2DBF8DB79EB70196E0
:1049A0005C01A801B3010E94423D4501800E911EA9
:1049B0008401222DA3016981AA81BB818C910E946F
:1049C000B41AC114D10499F0CE0CDF1CF401960185
:1049D000D7018D917D018095908189238083D901B4
:1049E0009D919D01892B8193CE14DF0489F7698104
:1049F000620DA501EA81FB8180810E943E1BEC8152
:104A0000FD810FB6F894FEBF0FBEEDBF0F900F9063
:104A10000F900F900F90DF91CF911F910F91FF900A
:104A2000EF90DF90CF90BF90AF909F908F907F904E
:104A30006F905F904F903F902F9008958FE10E946C
:104A4000FB39B0990FC080914F02909150020196AE
:104A500010920502109204029093070280930602BE
:104A600081E0089581E086BB80914F0290915002D1
:104A700001969093500280934F0220E030E83093EB
:104A8000050220930402909307028093060281E0BE
:104A90000895CF93DF93FC0184819581A681B7812E
:104AA0004489558966897789C58DD68D3881C42F0B
:104AB000C170278D232331E009F430E0C31761F082
:104AC0004F5F5F4F6F4F7F4F448B558B668B778B5C
:104AD000808F918FA28FB38F4089518962897389AA
:104AE000272F481759076A072B0B27FF18C0248D5B
:104AF0002160248F4485558566857785840F951FB1
:104B0000A61FB71F808B918BA28BB38B10922602AE
:104B100081E080934E0284819581A681B781408592
:104B2000518562857385840F951FA61FB71F8483E7
:104B30009583A683B78381E0DF91CF9108950F938A
:104B40001F93CF93DF938C0161ED75E2FC018081AF
:104B50000E94CB29EC010E94EB35F80184819581FC
:104B6000A681B7818C839D83AE83BF8340855185A9
:104B700062857385488759876A877B874485558511
:104B8000668577854C875D876E877F87888B998B55
:104B9000AA8BBB8BCE01DF91CF911F910F910C940B
:104BA0003D360F931F93CF93DF93EC0140E250E02B
:104BB00061ED75E288810E949C298C0168858C8159
:104BC0000E948E2AF801658F768F878F89E495E29F
:104BD00093838283DF91CF911F910F910895803647
:104BE00078F5E82FE695E695E695F0E0EE0FFF1FE5
:104BF000E559FA4FA591B491109711F1877021E012
:104C000030E0A90102C0440F551F8A95E2F7CA019E
:104C10003FB7F89412962C91129761110FC04095EE
:104C2000242312962C93129711962C911197282BCE
:104C300011962C9311973FBFBD010895242BF1CFFE
:104C40008CE20E94FB391F920F920FB60F92112433
:104C50000BB60F92EF92FF920F931F932F933F93F8
:104C60004F935F936F937F938F939F93AF93BF9374
:104C7000CF93DF93EF93FF930DC07A01809184006F
:104C8000909185008E199F0997FD7CC07894B29908
:104C90009AC0F894C0912202D0912302EA81FB814C
:104CA000309709F0ADC0EA8DFB8D2C8D20838E8569
:104CB0009F85019709F4C1C09F878E878885998554
:104CC000AA85BB854C815D816E817F81480F591F0C
:104CD0006A1F7B1F4C835D836E837F8320832CA59B
:104CE00025FF0EC00C851D85012E000C220B330BF9
:104CF000800F911FA21FB31F88879987AA87BB8740
:104D0000E881F9810481158126813781872F401739
:104D100051076207830B87FDB0CF7801F093230220
:104D2000E0932202A0912402B091250214960D91E5
:104D30001D912D913C911797872F401751076207BE
:104D4000830B87FFFD01DF010190F081E02D0481DD
:104D5000158126813781872F401751076207830B02
:104D600087FFF1CFF983E883CD93DC93D0932502BD
:104D7000C093240280918400909185008E199F0930
:104D800097FF84CF863A9F4F0CF06AC0F09289005B
:104D9000E0928800FF91EF91DF91CF91BF91AF91A9
:104DA0009F918F917F916F915F914F913F912F9143
:104DB0001F910F91FF90EF900F900BBE0F900FBEC1
:104DC0000F901F901895F894809184009091850021
:104DD0009701281B390B2038314CDCF12091260239
:104DE00027FF43C09C01205C304E30938B00209302
:104DF0008A0024E026BB90938900809388003ECFF0
:104E0000CE0119954C815D816E817F81811178CFB2
:104E1000E881F981E480F580F0932302E093220297
:104E20008091240290912502C817D90709F026CF56
:104E3000F0932502E093240221CFCE010E94952D0C
:104E4000EA8DFB8D9C8D90834C815D816E817F818D
:104E5000DDCF209127022111C1CF8AE20E94FB39C8
:104E60007894B299B0CFF89409CF9C012854344F6C
:104E700030938B0020938A0024E026BB7C01F394BE
:104E800085CF2FB7F8946091840070918500809150
:104E90004F0290915002B09902C02FBF08952FBFCA
:104EA0007F3FE1F30196089578940E9414382FEF24
:104EB000260F6623C1F0FC018FEF9FEF319183270E
:104EC000082E8295807F8025092E982F82958F70DD
:104ED0000826869598278927880F880F880F8025B0
:104EE000215060F708958FEF9FEF08950F931F9360
:104EF000FC01A489B58986898C9393A181E08927D7
:104F000083A3448155816681778180FF12C000852B
:104F1000118522853385400F511F621F731F82FD4B
:104F200012C0448355836683778381E01F910F917C
:104F300008950485158526853785400F511F621F0A
:104F4000731F82FFEECF0089118922893389872F51
:104F5000401751076207830B87FDE3CF8AED97E285
:104F600093838283B901A801448355836683778341
:104F700081E01F910F9108950895FC018081A48123
:104F8000B58140855185628573859FB7F8948130DE
:104F900061F0823019F04C939FBF08954D935D935B
:104FA0006D937C9313979FBF089511965C934E93D6
:104FB0009FBF08958F929F92AF92BF92CF92DF9240
:104FC000EF92FF921F93CF93DF93EC01EF8CF8A049
:104FD000E114F10409F4F0C0F7018081918198A3F4
:104FE0008F8F86809780A084B18411E08114910412
:104FF000A104B10409F4A1C06C897D898E89412F77
:105000000E94C72A80914C0290914D02F701918332
:105010008083F0924D02E0924C0281149104A1042D
:10502000B104E9F08B8D9C8DAD8DBE8D88169906EF
:10503000AA06BB06A0F44F89588D698D7A8D41155B
:1050400051056105710509F45BC08C819D81AE81BC
:10505000BF81480F591F6A1F7B1F166022C08BA19A
:1050600031E081149104A104B10409F068C084FB0B
:10507000992790F921E09227391709F443C04F8905
:10508000588D698D7A8D4115510561057105D1F1F4
:105090008C819D81AE81BF81480F591F6A1F7B1F84
:1050A0001460EF8DF8A1309709F077C02BA1488BE1
:1050B000598B6A8B7B8B2071212B2BA311FF5FC037
:1050C000880D991DAA1DBB1D12FD52C026E737E2AF
:1050D0003B832A838C839D83AE83BF838886998696
:1050E000AA86BB868B8D9C8DAD8DBE8D8819990946
:1050F000AA09BB098C879D87AE87BF8781E011C055
:1051000012608BA1EF8DF8A13097D9F4188A198A13
:105110001A8A1B8A8071812B8BA3812F827011FDCB
:1051200034C0DF91CF911F91FF90EF90DF90CF902F
:10513000BF90AF909F908F90089510E05DCF30E0CA
:1051400096CF4281538164817581488B598B6A8BDC
:105150007B8B8071912F9460892B8BA311FF0FC0E3
:105160008C819D81AE81BF81880D991DAA1DBB1DBB
:105170002B2F84179507A607270B27FDA7CF4C8356
:105180005D836E837F8381E0CCCF40E050E0BA0145
:105190008C819D81AE81BF8193CFC280D380E4801A
:1051A000F580872F4C155D056E058F0987FD07C0BB
:1051B0008BA1B701A601C9CF85E10E94FB3983E12C
:1051C0000E94FB39FC0185818F9384818F938081BC
:1051D0001F928F9381E891E19F938F930E94773282
:1051E0000F900F900F900F900F900F900895DC018B
:1051F0002C911496ED91FC9115973FB7F8942130BE
:10520000E9F02230B1F0808190E0A0E0B0E03FBF53
:10521000BF93AF939F938F938CE791E19F938F936D
:105220000E9477320F900F900F900F900F900F9079
:10523000089580819181A281B381E9CF808191819C
:10524000A0E0B0E0E4CFCF92DF92EF92FF92FC01BA
:1052500040815181628173812481E7EDF0E1859184
:105260009591A591B491481759076A077B0770F586
:105270006A017B01C20ED11CE11CF11C8C159D053D
:10528000AE05BF0500F5841B90E09A012D5E394FF5
:105290003F932F939F938F937F936F935F934F933E
:1052A0008AE991E19F938F930E9477328DB79EB7E1
:1052B0000A960FB6F8949EBF0FBE8DBFFF90EF9079
:1052C000DF90CF900895822F90E0DFCF80E090E0D4
:1052D000DCCF80912702882329F0823011F01092D0
:1052E0002702089582E00E94FB398EE00E94FB397C
:1052F000CF93DF93EC01988140913702A09138025F
:10530000B09139020BC0FD0184E0989FE00DF11DC2
:105310001124208131812617370741F09F5F9417B0
:1053200090F380E090E0DF91CF910895988382819F
:105330009381DF91CF910895CF93DF9390913702BE
:10534000891730F5C82FD0E0CC0FDD1FCC0FDD1F43
:10535000E0913802F0913902EC0FFD1F80819181BC
:10536000892BB1F480913F0290914002892B81F406
:1053700071836083CA010E945432209138023091B7
:105380003902C20FD31F9B838A83DF91CF91089587
:105390008BE00E94FB3990913702891788F4E091E5
:1053A0003802F091390294E0899FE00DF11D11243B
:1053B000808191818617970719F4828193810895DE
:1053C0008CE00E94FB39CF92DF92EF92FF92CF9355
:1053D000DF93C0913F02D09140022097B9F121970D
:1053E0006E01E12CF12CA0913E02B0E02097D9F0A3
:1053F00020E030E040E050E0BA0180913C02909122
:105400003D02FC01E20FF31F4F5F5F4F6F4F7F4F75
:105410002A0F3B1F820F931F918380834C155D05DC
:105420006E057F0550F380913C0290913D02CA9F2A
:10543000F001CB9FF00DDA9FF00D1124E80FF91F5A
:105440001182108290934D0280934C02DF91CF9194
:10545000FF90EF90DF90CF900895FC0113821282AD
:10546000118210826F3F710509F07CF480913F0238
:1054700090914002892B49F480913E0290E086177A
:10548000970714F460933E0208950E9475292FB780
:10549000F89480914C0290914D02009749F0FC01E4
:1054A0004081518150934D0240934C022FBF08958B
:1054B0008FE00E94FB39CF92DF92EF92FF926B0157
:1054C0007C0109C00E944127292F6C157D058E059E
:1054D0002F0927FF09C08091BC0087FFF3CFFF9001
:1054E000EF90DF90CF90089580E30E94FB3924EA8B
:1054F0002093BC000E945B2A8091B90090E0A0E05C
:10550000B0E080319105A105B10521F00897A10512
:10551000B10509F408958FE20E94FB398036A0F5A9
:1055200067FD32C0E82FE695E695E695F0E0EE0FD0
:10553000FF1FE559FA4FA591B491109729F1877093
:1055400021E030E0A90102C0440F551F8A95E2F71F
:10555000CA014FB7F89412963C911297662381F0D6
:10556000382B282F209512963C93129711963C9138
:105570001197232311962C9311974FBFBD010895C6
:10558000282F20953223EFCF8BE20E94FB39FB01BD
:105590002FB7F8949281411105C0809589238283A9
:1055A0002FBF0895892B82832FBF08950F931F93D8
:1055B000FC01A085B1859C910481158126813781EC
:1055C0004385548565857685400F511F621F731F83
:1055D0008285892361F0818D8095817059F04483A3
:1055E00055836683778381E01F910F910895818DA4
:1055F0008170A9F7438B548B658B768B8CED9BE187
:1056000093838283CF011F910F910C94DC1BCF9366
:10561000DF93EC016FE37DE288810E94CB29FC01DE
:105620008C819D81AE81BF81892B8A2B8B2B51F47C
:1056300020E0F89494A59D7F922B94A77894DF9115
:10564000CF91089522E0F5CF0F931F93CF93DF936F
:105650008C01EC01A897CE010E94EB351C821D82C3
:105660001E821F821A8A1B8A1C8A1D8A88A199A100
:10567000AAA1BBA12CA54E855F856889798924FDE7
:1056800004C07695679557954795841B950BA60B97
:10569000B70BB7FD40C0B095A095909581959F4FF1
:1056A000AF4FBF4F88A399A3AAA3BBA31E861F8693
:1056B000188A198A247128602CA76D8D7E8D8F8D94
:1056C00040E00E94C72A4CA544706A8D7B8D8C8D6A
:1056D0000E94C72AD8011497ED91FC911197309739
:1056E000A9F040914C0290914D0201C0F901208136
:1056F000318140839183F0934D02E0934C024E2F11
:105700009F2F2115310591F71D921C92DF91CF91AA
:105710001F910F910895B095A095909581959F4FF9
:10572000AF4FBF4FB8CF0F931F93CF93DF938C0131
:105730006FE37DE2FC0180810E94CB29EC0166E2EF
:105740007DE1F80184810E94CB29BE01685D7F4F15
:105750004FB7F8942AA53BA5232B89F424E23BE21A
:105760003BA72AA7FC012489358939A728A7758B6F
:10577000648B4FBFDF91CF911F910F91089589E105
:105780000E94FB39CF93DF93EC016FE37DE28881C8
:105790000E94CB29FC018C819D81AE81BF81F89450
:1057A0004685578560897189452B462B472B79F4AF
:1057B00084839583A683B783828B938BA48BB58BCD
:1057C00084A5877F84A77894DF91CF91089586E19F
:1057D0000E94FB39CF93FC01C0816FE37DE28C2FE7
:1057E0000E94CB29FC01F89480A191A1A2A1B3A1B0
:1057F00024A5468557856089718924FD04C0769566
:10580000679557954795841B950BA60BB70BB7FF6C
:1058100007C0B095A095909581959F4FAF4FBF4F12
:105820007894B054BF93AF939F938F931F92CF936D
:1058300087E791E19F938F930E9477328DB79EB750
:1058400008960FB6F8949EBF0FBE8DBFCF910895F6
:105850004F925F926F927F92BF92CF92DF92EF92C0
:10586000FF920F931F93CF93DF93FC01B0806DEFF6
:105870007CE28B2D0E94CB29EC014D805E806F80F5
:105880007884C984DA84EB84FC840E944127DC019B
:10589000CB0184199509A609B7098C159D05AE059C
:1058A000BF0568F40E944127DC01CB0184199509EA
:1058B000A609B7098C159D05AE05BF0598F3CD84E3
:1058C000DE84688179818A81A0918400B09185000D
:1058D0000B811C819E01215F3F4F7901C20ED31EB7
:1058E000CE14DF0409F457C0F70191917F0128E03D
:1058F00013C0F8944091840050918500FB0180838F
:1059000080837894FA01EA1BFB0BE017F107D8F4C7
:10591000990FDA01215021F397FFEBCFF8944091D2
:10592000840050918500FB0180837894FA01EA1B82
:10593000FB0BE017F10738F4990FF894FB01808313
:105940007894DA01E7CF40E00E94C72A0E944127FD
:105950006D837E838F83988780E01F928F931F9241
:10596000BF9287E291E19F938F930E9477320F90CD
:105970000F900F900F900F900F90DF91CF911F918C
:105980000F91FF90EF90DF90CF90BF907F906F903E
:105990005F904F9008950E9441276D837E838F838F
:1059A000988781E0DACF0F931F93CF93DF93EC01B9
:1059B0006DEF7CE288810E94CB290C811D812E81B4
:1059C0003F8148856C857D8517FD14C050E0DA0164
:1059D000A00FB11FEC01ED85FE85EA17FB0750F023
:1059E000015F1F4F800F911FDF91CF911F910F918A
:1059F0000C94423D88E20E94FB396F927F928F9215
:105A0000CF92DF92EF92FF92CF93DF93EC0160E0B1
:105A10008C810E94EF253B01882EC884D984EA84BA
:105A2000FB84D7FC24C0A601415F5F4F6DEF7CE291
:105A300088810E949C29FC01608271828282D686C4
:105A4000C5868C859D859483838388899989AA8955
:105A5000BB8981879287A387B487DF91CF91FF901D
:105A6000EF90DF90CF908F907F906F90089589E2B4
:105A70000E94FB39FC01648180810C94EF250F9317
:105A80001F93CF93DF938C014DE250E06FE37DE2F3
:105A9000FC0180810E949C29EC01F8018485181684
:105AA0000CF041C064E06CA7F80184810E94EF25EE
:105AB0006A8F7B8F8C8F60E0F80180850E94EF25D4
:105AC0006D8F7E8F8F8F80E090E0A0E0B0EC88A398
:105AD00099A3AAA3BBA3F80180899189A289B3895C
